:020000040000FA
:10000000BC298207DD348434E934E534B4347534F2
:100010007D34C434FD34F534FC343D342934AD34FE
:10002000793478345D34BC3408340034FF34F83427
:1000300028342D34F4340D3439347534E93418341B
:10004000853439341934DC341D3421348207F734D3
:10005000FB34FE34FD34FF34820700349834963488
:10006000803400340F344234403400340134863458
:10007000A034003400342734103400340034033406
:10008000E834003400340034643400340034003484
:100090000A340034003400340134640083168100D3
:1000A00083120034640081018316273081006400CC
:1000B0002F30810083120034003086008B016400F1
:1000C000810183162B308100831263000000080039
:1000D000C9007F390120C91B0238C9000034CA0099
:1000E0007F390120CA1B0238CA000034CB007F3997
:1000F0000120CB1B0238CB000034CC007F3901201B
:10010000CC1B0238CC000034CD007F390120CD1B40
:100110000238CD0000340030C900CA00CB00CC004A
:10012000CD0000348B1383169B00831200088316C6
:100130009A001C158B1355309D00AA309D009C140D
:100140009C18A0281C1183120034AF008B13831657
:100150009B001C141A08831280002F080800A52099
:10016000013E840AA520013E840AA520013E840A9E
:10017000A528B001B101B201B301D801D901D7015D
:10018000DD13AC018101000000004E082620AF0005
:1001900049304E078400000886002F088500CF0AEA
:1001A0004F1BCE0A4F134E08043C031CCE0101081E
:1001B000B3000130AC1F0301B31B0301B2070318E6
:1001C000B10AB11B2F2900000000AE080319AD03CE
:1001D000AE0364000A30D60033082C060319172931
:1001E00001303302031DFC282E08B9002D08B80089
:1001F0000730D600000017290630D60000005D0841
:100200000739031D3C30503E5702031817290230AE
:10021000D6003808D8003908D90003142E08031C6A
:100220002E0FD9022D08031C2D0FD802D70A56080D
:10023000FF3E031D18293308AC0000000000000039
:1002400000002D082E04031DC5280108B30001304D
:10025000AC1F0301B31B0301B2070318B10A00343A
:100260000008840AB0000008840AB1000008840A6B
:10027000B2000008840AB300A70140308400640083
:1002800027082C20A800A70A27082C20A900A70AC5
:1002900027082C20AA00A70A27082C20AB00A70AB1
:1002A00080012B08B3022A0803185B29B202031944
:1002B0000310B2035C29B202290803186429B102B1
:1002C00003190310B1036529B102280803186D2929
:1002D000B00203190310B0036E29B002031C722987
:1002E000800A51292B08B3072A08031C7C29B2076E
:1002F000B20A031903147D29B2072908031C8529B2
:10030000B107B10A031903148629B1072808031C91
:100310008E29B007B00A031903148F29B007840A85
:1003200020302702031D3F29403084008008031D30
:10033000AD29840A8008031DAD29840A8008031DA5
:10034000A229840ADD1FAA295D080739031DAE29E9
:10035000C517AE295118C417AE29C1170008682067
:10036000840A00086F20840A00087620840A0008A6
:100370007D20840A000884280030831685008312BB
:10038000850100308316860083128601CE01CF01DD
:100390001330C80027304D20D201D40155308400DD
:1003A0002030A5208B205508DD0034236130AD00BE
:1003B000A830AE00B920851AE329DD0A05305D02B8
:1003C0000319DD01D5295D08D500553084002030A2
:1003D000922083160030850000308600831264006E
:1003E00020308316810083120630AD008230AE00CB
:1003F00025304D20B9203030AD00D430AE00D10AC8
:10040000D20A3208C039031D392AB21A352A321AE3
:10041000312AB2192D2A32192A2AB2182A2A321858
:100420002A2A3308363C031C2A2A3308053C182A9A
:100430005220D20AD20AD20AC330AD005030AE00E8
:1004400000303D2A5220D20A6130AD00A830AE0003
:1004500001303D2A522002303D2A20304D20033009
:100460003D2A21304D2004303D2A22304D200530D8
:100470003D2A23304D2006303D2AD000B920D00837
:100480000319492A0310B30DB20DB10DB00DD00BF5
:10049000422A30083104320433040319512BB01BB3
:1004A0005C2B300831043204031DE42A5D0807394F
:1004B000031D5E2AC93033020318E42AD708031D3E
:1004C000672A0130D700C330D8005030D900B001BE
:1004D000B101B201B3015D080739031D782A00306C
:1004E000B4004C30B5004B30B6004030B700A42A01
:1004F000FF3E031D842A0030B4002D30B500C63005
:10050000B600C030B700A42AFF3E031D902A003079
:10051000B4001630B500E330B6006030B700A42A4E
:10052000FF3E031D9C2A0030B4000F30B50042305E
:10053000B6004030B700A42A0030B4000B30B5003C
:100540007130B600B030B700031037080318370F0A
:10055000B30736080318360FB20735080318350FEE
:10056000B10734080318340FB007D703031DA42ABA
:10057000B401B5015808B6005908B700DA01DB012B
:10058000DC01202303143708031C370FB30236089D
:10059000031C360FB2023508031C350FB1023408B4
:1005A000031C340FB002031CDB2ADC0A0319DB0A2C
:1005B0000319DA0AC12AB0015A08B1005B08B20077
:1005C0005C08B300DD171E2B5D08073903191E2BCD
:1005D000FF3E0319FD2AFF3E0319F92AFF3E0319C6
:1005E000F52A0E30D7001830002B1330D700123008
:1005F000002B1D30D7000C30002B3B30D7000630CD
:10060000320203181E2BB401B5013208B6003308BC
:10061000B700031037080318370FB307360803185D
:10062000360FB20735080318350FB1073408031821
:10063000340FB007D703031D092BDD173C21E9292F
:100640004E082620AF0049304E078400000886007F
:100650002F088500CF0A4F1BCE0A4F134E08043CCB
:10066000031CCE01640000345D0807390319462BD2
:100670001630682015306F202330762013307D200F
:10068000133084205D0807397D2000340F30682046
:1006900016306F200E30762018307D2013308420E5
:1006A00000341330682013306F201330762013305D
:1006B0007D2000308420E9291330682013306F201A
:0E06C0001330762013307D200E308420E9297F
:0206CE000034F6
:0206D0000034F4
:084000000100020003000400AE
:02400E00063F6B
:084200000000000000000000B6
:0842080000000600F10058005F
:1042100000003D0005001800000040000000000004
:1042200000004300A600D3000000A3004400E0000B
:0242400000007C
:00000001FF
