:020000040000FA
:100000009D298207DD348434E934E534B434753411
:100010007D34C434FD34F534FC343D342934AD34FE
:10002000793478345D34BC3408340034FF34F83427
:1000300028342D34F4340D3439347534E93418341B
:10004000853439341934DC341D3421348207F734D3
:10005000FB34FE34FD34FF34820700349834963488
:10006000803400340F344234403400340134863458
:10007000A034003400342734103400340034033406
:10008000E834003400340034643400340034003484
:100090000A3400340034003401343C088207B02AAA
:1000A000BB2AD12AD92AE12AE92AF42AF62AF82AEF
:1000B000FA2AFC2AB02A3C088207072B082B0F2BB0
:1000C0001D2B2A2B2F2B322B322B322B322B072B93
:1000D000640083168100831200346400810183165A
:1000E0002730810064002F308100831200340030FB
:1000F00086008B016400810183162B3081008312FE
:10010000630000000800C9007F390120C91B0238C4
:10011000C9000034CA007F390120CA1B0238CA0056
:100120000034CB007F390120CB1B0238CB000034D8
:10013000CC007F390120CC1B0238CC000034CD002C
:100140007F390120CD1B0238CD0000340030C900BA
:10015000CA00CB00CC00CD0000348B1383169B006B
:100160008312000883169A001C158B1355309D00CE
:10017000AA309D009C149C18BB281C1183120034CB
:10018000AF008B1383169B001C141A088312800087
:100190002F080800C020013E840AC020013E840AC6
:1001A000C020013E840AC028B001B101B201B301F0
:1001B000AC018101000000004E082620AF0049304C
:1001C0004E078400000886002F088500CF0A4F1BC9
:1001D000CE0A4F134E08043C031CCE010108B300A5
:1001E0000130AC1F0301B31B0301B2070318B10AAE
:1001F000B11B18293308AC00AE080319AD03AE03D8
:1002000064000C30FF3E031D0229000000000000C6
:10021000000000002D082E04031DDC280108B30097
:100220000130AC1F0301B31B0301B2070318B10A6D
:1002300000340008840AB0000008840AB1000008F5
:10024000840AB2000008840AB300A7014030840089
:10025000640027082C20A800A70A27082C20A90042
:10026000A70A27082C20AA00A70A27082C20AB00E1
:10027000A70A80012B08B3022A0803184429B202F6
:1002800003190310B2034529B202290803184D29A6
:10029000B10203190310B1034E29B1022808031853
:1002A0005629B00203190310B0035729B002031CEA
:1002B0005B29800A3A292B08B3072A08031C652901
:1002C000B207B20A031903146629B2072908031CEE
:1002D0006E29B107B10A031903146F29B107280861
:1002E000031C7729B007B00A031903147829B00753
:1002F000840A20302702031D28294030840080080A
:10030000031D8E29840A8008031D8E29840A800813
:10031000031D8B29840A5118C4178F29C11700089F
:100320008320840A00088A20840A00089120840A15
:1003300000089820840A00089F2800308316850052
:100340008312850100308316860083128601CE0158
:10035000CF011330C8001430832014308A201430A9
:1003600091201430982014309F202730682061306D
:10037000AD00A830AE00D420D201D40138308400C2
:100380000030CA20553084002030C020A6208316BB
:100390000030850000308600831264002030831610
:1003A000810083120630AD008230AE002530682017
:1003B000D4203030AD00D430AE00D10AD20A320899
:1003C000C039031D172AB21A132A321A0F2AB2197A
:1003D0000B2A3219082AB218082A3218082A3308B8
:1003E000363C031C082A3308053CF6296D20D20A46
:1003F000D20AD20AC330AD005030AE0000301B2A02
:100400006D20D20A6130AD00A830AE0001301B2A49
:100410006D2002301B2A2030682003301B2A213037
:10042000682004301B2A2230682005301B2A233024
:10043000682006301B2AD000D420551C4C2A5418A2
:10044000A62033085302AF00AF1F282AAF09AF0A16
:100450002F080A3C0318312A5410D2013308D30064
:100460004C2A54183D2A52083C3C0318462A0D30A9
:10047000D20054143308D300482A52080E3C031803
:10048000482AD2013308D300D2014C2A541C4C2AEA
:10049000772077207720922AD0080319562A031054
:1004A000B30DB20DB10DB00DD00B4F2A3008310491
:1004B000320433040319952AB01BA02A3008B40073
:1004C0003108B5003208B6003308B7003B08B3075F
:1004D0003A08031C702AB207B20A03190314712ADE
:1004E000B2073908031C792AB107B10A03190314AA
:1004F0007A2AB1073808031C822AB007B00A031908
:100500000314832AB007B01F912AB009B109B209B8
:10051000B309B30F912AB20F912AB10F912AB00FEC
:10052000912A2521851E342BC729133083201330AF
:100530008A20133091201330982000309F20922A77
:100540001330832013308A201330912013309820E9
:100550000E309F20C7291330AD008830AE00D4285C
:100560001830832019308A20123091201A309820B8
:1005700013309F20AB2A551CC72A153083201B300F
:100580008A200A309120223098200E30B92A21305A
:10059000832017308A20153091201B30982022307C
:1005A000B92A0A3083200D308A200D309120133073
:1005B000B72A1B30832019308A200B30912013304A
:1005C000B72A1C3083200E308A2016309120173035
:1005D000B72A1A3083200A308A200B30912020302D
:1005E00098200E309F20AB2A0430FE2A0830FE2AC5
:1005F0000C30FE2A1030FE2A1430FE2AAF003430B0
:1006000084002F08CA20343084001921AB2ABC2969
:100610000130D506553084002030AD20AB2A34306F
:1006200084000030AD20840A0130AD20840A0230FD
:10063000AD20840A0330AD20BC29B409B509B60940
:10064000B709B70F292BB60F292BB50F292BB40FDC
:10065000292B0F2BB401B501B601B7010F2B0630C2
:10066000BC00422B0230302BBC01153083201630E9
:100670008A20173091201030982013309F20AB2211
:10068000851E3F2BD10A4D20851A422B0A30BD0012
:10069000851A532BAB22BD0B482BA620AB224D2035
:1006A000851E4D2B5B283C08053C03195B2B031C66
:1006B0005D2BBC0A422BBC01422B3C080A3C0319AF
:1006C000652B031C682BBC0A422B0630BC00422B56
:0406D000BC01422BFC
:0406D40000340034BA
:084000000100020003000400AE
:02400E00063F6B
:084200000000000000000000B6
:0842080000000600F10058005F
:1042100000003D0005001800000040000000000004
:1042200000004300A600D3000000A3004400E0000B
:0242400000007C
:00000001FF
