:020000040000FA
:10000000CF298207DD348434E934E534B4347534DF
:100010007D34C434FD34F534FC343D342934AD34FE
:10002000793478345D34BC3408340034FF34F83427
:1000300028342D34F4340D3439347534E93418341B
:10004000853439341934DC341D3421348207F734D3
:10005000FB34FE34FD34FF3482070534F534E134DB
:100060000034003498349634803400340F344234F1
:100070004034003401348634A03400340034273452
:100080001034003400340334E834003400340034D5
:1000900064340034003400340A3400340034003452
:1000A00001346400831681008312003464008101EE
:1000B00083162730810064002F30810083120034C2
:1000C000003086008B016400810183162B30810093
:1000D0008312630000000800CA007F390120CA1B98
:1000E0000238CA000034CB007F390120CB1B023814
:1000F000CB000034CC007F390120CC1B0238CC006F
:100100000034CD007F390120CD1B0238CD000034F2
:10011000CE007F390120CE1B0238CE0000340030E3
:10012000CA00CB00CC00CD00CE0000348B13831668
:100130009B008312000883169A001C158B13553000
:100140009D00AA309D009C149C18A4281C118312A9
:100150000034AF008B1383169B001C141A08831203
:1001600080002F080800A920013E840AA920013E32
:10017000840AA920013E840AA928B001B101B20174
:10018000B301D901DA01D801DE13AC015E080739E9
:10019000043C0318CF280108BA003B08BA028101C9
:1001A000000000004F082620AF004A304F078400AF
:1001B000000886002F088500D00A501BCF0A501374
:1001C0004F08043C031CCF010108B3000130AC1FF1
:1001D0000301B31B0301B2070318B10AB11B3E2987
:1001E00000000000AE080319AD03AE0364000A303E
:1001F000D70033082C060319252901303302031DCB
:1002000009292E08B9002D08B8000730D7000000D2
:1002100025290630D70000005E080739031D3C3051
:10022000503E58020318252900000230D700380834
:10023000D9003908DA0003142E08031C2E0FDA0245
:100240002D08031C2D0FD902D80A5708FF3E031DA5
:1002500026293308AC0000000000000000002D0833
:100260002E04031DD2280108B300BB000130AC1FCF
:100270000301B31B0301B2070318B10A00340008DD
:10028000840AB0000008840AB1000008840AB200A1
:100290000008840AB300A7014030840064002708E6
:1002A0002C20A800A70A27082C20A900A70A2708A5
:1002B0002C20AA00A70A27082C20AB00A70A80013F
:1002C0002B08B3022A0803186A29B2020319031083
:1002D000B2036B29B202290803187329B10203196A
:1002E0000310B1037429B102280803187C29B00255
:1002F00003190310B0037D29B002031C8129800A71
:1003000060292B08B3072A08031C8B29B207B20AFD
:10031000031903148C29B2072908031C9429B10777
:10032000B10A031903149529B1072808031C9D2954
:10033000B007B00A031903149E29B007840A2430B9
:100340002702031D4E29403084008008031DC02968
:10035000840A8008031DC029840A8008031DC0295F
:10036000840A8008031DB529840ADE1FBD295E08A2
:100370000739031DC129C617C1295218C517C1293C
:10038000C21700086C20840A00087320840A000841
:100390007A20840A00088120840A00088828003016
:1003A0008316850083128501003083168600831230
:1003B0008601CF01D0011330C80027305120D3016E
:1003C000D501563084002030A9208F205608DE0049
:1003D000B9236130AD00A830AE00BD20851AF629E2
:1003E000DE0A06305E020319DE01E8295E08D60047
:1003F0005630840020309620B401B501B601B70113
:10040000BA01BB01831600308500003086008312DC
:10041000640020308316810083120630AD008230E4
:10042000AE0025305120BD203030AD00D430AE00BC
:10043000D20AD30A3208C039031D672AB21A5E2ACB
:10044000321A552AB2194C2A3219432AB218432AB1
:100450003218382A3308363C031C382A5620D30A6F
:10046000D30AD30AC330AD005030AE0000306F2A3B
:1004700020305120D30AD30AD30AC330AD00503004
:10048000AE0001306F2A20305120D30A6130AD0018
:10049000A830AE0002306F2A21305120D30A6130DB
:1004A000AD00A830AE0003306F2A22305120D30AAD
:1004B0006130AD00A830AE0004306F2A23305120E7
:1004C000D30A6130AD00A830AE0005306F2A243069
:1004D0005120D30A6130AD00A830AE000630D10003
:1004E0005E080739043C0318C32A1330AD00883076
:1004F000AE00BD20031033080318330FB7073208CE
:100500000318320FB60731080318310FB50730084A
:100510000318300FB4073A08B300B201B101B001BB
:10052000031033080318330FB70732080318320FCC
:10053000B60731080318310FB50730080318300F1C
:10054000B4073408B0003508B1003608B2003708E7
:10055000B3003108013C031CBC2A031DB92A320830
:10056000863C031CBC2A031DB92A33089F3C031C8C
:10057000BC2A4B21851A752AB401B501B601B70111
:10058000BA01BB01752ABD20D1080319CE2A031078
:10059000B30DB20DB10DB00DD10BC72A3008310427
:1005A000320433040319E42BB01BEF2B3008310461
:1005B0003204031D692B5E080739031DE32AC93085
:1005C00033020318692BD808031DEC2A0130D80028
:1005D000C330D9005030DA00B001B101B201B3012B
:1005E0005E080739031DFD2A0030B4004C30B50009
:1005F0004B30B6004030B700292BFF3E031D092BBE
:100600000030B4002D30B500C630B600C030B700A1
:10061000292BFF3E031D152B0030B4001630B5000A
:10062000E330B6006030B700292BFF3E031D212BBD
:100630000030B4000F30B5004230B6004030B70093
:10064000292B0030B4000B30B5007130B600B0304B
:10065000B700031037080318370FB307360803181D
:10066000360FB20735080318350FB10734080318E1
:10067000340FB007D803031D292BB401B501590865
:10068000B6005A08B700DB01DC01DD01A523031425
:100690003708031C370FB3023608031C360FB202AB
:1006A0003508031C350FB1023408031C340FB002A7
:1006B000031C602BDD0A0319DC0A0319DB0A462B35
:1006C000B0015B08B1005C08B2005D08B300DE1742
:1006D000A32B5E0807390319A32BFF3E0319822BB6
:1006E000FF3E03197E2BFF3E03197A2B0E30D800F4
:1006F0001830852B1330D8001230852B1D30D800D0
:100700000C30852B3B30D800063032020318A32B67
:10071000B401B5013208B6003308B700031037083A
:100720000318370FB30736080318360FB20735081A
:100730000318350FB10734080318340FB007D80376
:10074000031D8E2BDE174B21FC294F082620AF00FE
:100750004A304F078400000886002F088500D00A21
:10076000501BCF0A50134F08043C031CCF016400F8
:1007700000345E0807390319CE2B043C031CD92B27
:1007800016306C201530732023307A2013308120EE
:10079000133088205E080739812000340F306C2028
:1007A000163073200E307A201830812013308820C4
:1007B00000340C306C201730732019307A2021302F
:1007C00081201A308820003413306C2013307320BD
:1007D00013307A201330812000308820FC29133018
:1007E0006C201330732013307A20133081200E30A8
:0407F0008820FC2938
:0407F4000034003499
:084000000100020003000400AE
:02400E00063F6B
:084200000000000000000000B6
:0842080000000600F10058005F
:1042100000003D0005001800000040000000000004
:1042200000004300A600D3000000A3004400E0000B
:0242400000007C
:00000001FF
