:020000040000FA
:10000000C7298207DD348434E934E534B4347534E7
:100010007D34C434FD34F534FC343D342934AD34FE
:10002000793478345D34BC3408340034FF34F83427
:1000300028342D34F4340D3439347534E93418341B
:10004000853439341934DC341D3421348207F734D3
:10005000FB34FE34FD34FF34820700349834963488
:10006000803400340F344234403400340134863458
:10007000A034003400342734103400340034033406
:10008000E834003400340034643400340034003484
:100090000A340034003400340134640083168100D3
:1000A00083120034640081018316273081006400CC
:1000B0002F30810083120034003086008B016400F1
:1000C000810183162B308100831263000000080039
:1000D000C9007F390120C91B0238C9000034CA0099
:1000E0007F390120CA1B0238CA000034CB007F3997
:1000F0000120CB1B0238CB000034CC007F3901201B
:10010000CC1B0238CC000034CD007F390120CD1B40
:100110000238CD0000340030C900CA00CB00CC004A
:10012000CD0000348B1383169B00831200088316C6
:100130009A001C158B1355309D00AA309D009C140D
:100140009C18A0281C1183120034AF008B13831657
:100150009B001C141A08831280002F080800A52099
:10016000013E840AA520013E840AA520013E840A9E
:10017000A528B001B101B201B301D801D901D7015D
:10018000DD13AC015D080739043C0318CB280108D6
:10019000BA003B08BA028101000000004E08262088
:1001A000AF0049304E078400000886002F08850004
:1001B000CF0A4F1BCE0A4F134E08043C031CCE013E
:1001C0000108B3000130AC1F0301B31B0301B207E8
:1001D0000318B10AB11B3A2900000000AE08031948
:1001E000AD03AE0364000A30D60033082C060319B1
:1001F000212901303302031D05292E08B9002D08DD
:10020000B8000730D600000021290630D6000000D3
:100210005D080739031D3C30503E57020318212961
:1002200000000230D6003808D8003908D90003147D
:100230002E08031C2E0FD9022D08031C2D0FD802E7
:10024000D70A5608FF3E031D22293308AC000000E0
:100250000000000000002D082E04031DCE28010818
:10026000B300BB000130AC1F0301B31B0301B20795
:100270000318B10A00340008840AB0000008840A98
:10028000B1000008840AB2000008840AB300A70184
:1002900040308400640027082C20A800A70A270803
:1002A0002C20A900A70A27082C20AA00A70A2708A3
:1002B0002C20AB00A70A80012B08B3022A080318E0
:1002C0006629B20203190310B2036729B202290892
:1002D00003186F29B10203190310B1037029B10289
:1002E000280803187829B00203190310B0037929EC
:1002F000B002031C7D29800A5C292B08B3072A0859
:10030000031C8729B207B20A031903148829B2070C
:100310002908031C9029B107B10A03190314912974
:10032000B1072808031C9929B007B00A0319031460
:100330009A29B007840A20302702031D4A29403039
:1003400084008008031DB829840A8008031DB82989
:10035000840A8008031DAD29840ADD1FB5295D08C4
:100360000739031DB929C517B9295118C417B92967
:10037000C11700086820840A00086F20840A00085A
:100380007620840A00087D20840A00088428003032
:100390008316850083128501003083168600831240
:1003A0008601CE01CF011330C80027304D20D20185
:1003B000D401553084002030A5208B205508DD0065
:1003C00098236130AD00A830AE00B920851AEE291F
:1003D000DD0A06305D020319DD01E0295D08D50064
:1003E0005530840020309220B401B501B601B70128
:1003F000BA01BB01831600308500003086008312ED
:10040000640020308316810083120630AD008230F4
:10041000AE0025304D20B9203030AD00D430AE00D4
:10042000D10AD20A3208C039031D4A2AB21A462A12
:10043000321A422AB2193E2A32193E2AB2183E2AEC
:1004400032183B2A3308363C031C3B2A3308053C50
:10045000292A5220D20AD20AD20AC330AD00503023
:10046000AE0000304E2A5220D20A6130AD00A830D2
:10047000AE0001304E2A522002304E2A20304D204C
:1004800003304E2A21304D2004304E2A22304D2098
:1004900005304E2A23304D2006304E2AD0005D080C
:1004A0000739043C0318A22A1330AD008830AE008F
:1004B000B920031033080318330FB70732080318A5
:1004C000320FB60731080318310FB507300803188B
:1004D000300FB4073A08B300B201B101B001031004
:1004E00033080318330FB70732080318320FB60763
:1004F00031080318310FB50730080318300FB4075F
:100500003408B0003508B1003608B2003708B3002F
:100510003108013C031C9B2A031D982A3208863CA3
:10052000031C9B2A031D982A33089F3C031C9B2A0B
:100530004721851A542AB401B501B601B701BA01A1
:10054000BB01542AB920D0080319AD2A0310B30DFA
:10055000B20DB10DB00DD00BA62A30083104320413
:1005600033040319C32BB01BCE2B300831043204E3
:10057000031D482B5D080739031DC22AC930330209
:100580000318482BD708031DCB2A0130D700C330EE
:10059000D8005030D900B001B101B201B3015D08FB
:1005A0000739031DDC2A0030B4004C30B5004B3055
:1005B000B6004030B700082BFF3E031DE82A00308C
:1005C000B4002D30B500C630B600C030B700082BDF
:1005D000FF3E031DF42A0030B4001630B500E330AE
:1005E000B6006030B700082BFF3E031D002B003023
:1005F000B4000F30B5004230B6004030B700082BD1
:100600000030B4000B30B5007130B600B030B70028
:10061000031037080318370FB30736080318360FCF
:10062000B20735080318350FB10734080318340F23
:10063000B007D703031D082BB401B5015808B60055
:100640005908B700DA01DB01DC0184230314370801
:10065000031C370FB3023608031C360FB2023508ED
:10066000031C350FB1023408031C340FB002031C05
:100670003F2BDC0A0319DB0A0319DA0A252BB00128
:100680005A08B1005B08B2005C08B300DD17822B8A
:100690005D0807390319822BFF3E0319612BFF3ECA
:1006A00003195D2BFF3E0319592B0E30D70018306C
:1006B000642B1330D7001230642B1D30D7000C3060
:1006C000642B3B30D700063032020318822BB40172
:1006D000B5013208B6003308B70003103708031815
:1006E000370FB30736080318360FB207350803185B
:1006F000350FB10734080318340FB007D703031DB3
:100700006D2BDD174721F4294E082620AF00493014
:100710004E078400000886002F088500CF0A4F1B73
:10072000CE0A4F134E08043C031CCE016400003473
:100730005D0807390319AD2B043C031CB82B163098
:10074000682015306F202330762013307D20133041
:1007500084205D0807397D2000340F306820163072
:100760006F200E30762018307D2013308420003426
:100770000C30682017306F201930762021307D2012
:100780001A30842000341330682013306F20133067
:10079000762013307D2000308420F4291330682027
:1007A00013306F201330762013307D200E308420DC
:0207B000F4292A
:0407B20000340034DB
:084000000100020003000400AE
:02400E00063F6B
:084200000000000000000000B6
:0842080000000600F10058005F
:1042100000003D0005001800000040000000000004
:1042200000004300A600D3000000A3004400E0000B
:0242400000007C
:00000001FF
