:020000040000FA
:10000000C6298207DD348434E934E534B4347534E8
:100010007D34C434FD34F534FC343D342934AD34FE
:10002000793478345D34BC3408340034FF34F83427
:1000300028342D34F4340D3439347534E93418341B
:10004000853439341934DC341D3421348207F734D3
:10005000FB34FE34FD34FF34820700349834963488
:10006000803400340F344234403400340134863458
:10007000A034003400342734103400340034033406
:10008000E834003400340034643400340034003484
:100090000A340034003400340134640083168100D3
:1000A00083120034640081018316273081006400CC
:1000B0002F30810083120034003086008B016400F1
:1000C000810183162B308100831263000000080039
:1000D000C9007F390120C91B0238C9000034CA0099
:1000E0007F390120CA1B0238CA000034CB007F3997
:1000F0000120CB1B0238CB000034CC007F3901201B
:10010000CC1B0238CC000034CD007F390120CD1B40
:100110000238CD0000340030C900CA00CB00CC004A
:10012000CD0000348B1383169B00831200088316C6
:100130009A001C158B1355309D00AA309D009C140D
:100140009C18A0281C1183120034AF008B13831657
:100150009B001C141A08831280002F080800A52099
:10016000013E840AA520013E840AA520013E840A9E
:10017000A528B001B101B201B301D801D901D7015D
:10018000DD13AC015D080739043C0318CB280108D6
:10019000BA003B08BA028101000000004E08262088
:1001A000AF0049304E078400000886002F08850004
:1001B000CF0A4F1BCE0A4F134E08043C031CCE013E
:1001C0000108B3000130AC1F0301B31B0301B207E8
:1001D0000318B10AB11B392900000000AE08031949
:1001E000AD03AE0364000A30D60033082C060319B1
:1001F000202901303302031D05292E08B9002D08DE
:10020000B8000730D600000020290630D6000000D4
:100210005D080739031D3C30503E57020318202962
:100220000230D6003808D8003908D90003142E0847
:10023000031C2E0FD9022D08031C2D0FD802D70A3C
:100240005608FF3E031D21293308AC0000000000C2
:10025000000000002D082E04031DCE280108B30065
:10026000BB000130AC1F0301B31B0301B20703182D
:10027000B10A00340008840AB0000008840AB10002
:100280000008840AB2000008840AB300A7014030C5
:100290008400640027082C20A800A70A27082C2027
:1002A000A900A70A27082C20AA00A70A27082C20A3
:1002B000AB00A70A80012B08B3022A08031865299E
:1002C000B20203190310B2036629B2022908031807
:1002D0006E29B10203190310B1036F29B102280876
:1002E00003187729B00203190310B0037829B0026C
:1002F000031C7C29800A5B292B08B3072A08031CEE
:100300008629B207B20A031903148729B2072908FC
:10031000031C8F29B107B10A031903149029B107EF
:100320002808031C9829B007B00A03190314992957
:10033000B007840A20302702031D49294030840079
:100340008008031DB729840A8008031DB729840A81
:100350008008031DAC29840ADD1FB4295D08073914
:10036000031DB829C517B8295118C417B829C117D2
:1003700000086820840A00086F20840A000876209C
:10038000840A00087D20840A00088428003083162F
:100390008500831285010030831686008312860152
:1003A000CE01CF011330C80027304D20D201D40137
:1003B000553084002030A5208B205508DD00972380
:1003C0006130AD00A830AE00B920851AED29DD0AF4
:1003D00006305D020319DD01DF295D08D5005530C7
:1003E000840020309220B401B501B601B701BA01F2
:1003F000BB01831600308500003086008312640044
:1004000020308316810083120630AD008230AE00AA
:1004100025304D20B9203030AD00D430AE00D10AA7
:10042000D20A3208C039031D492AB21A452A321AA3
:10043000412AB2193D2A32193A2AB2183A2A3218F8
:100440003A2A3308363C031C3A2A3308053C282A4A
:100450005220D20AD20AD20AC330AD005030AE00C8
:1004600000304D2A5220D20A6130AD00A830AE00D3
:1004700001304D2A522002304D2A20304D200330C9
:100480004D2A21304D2004304D2A22304D20053098
:100490004D2A23304D2006304D2AD0005D08073903
:1004A000043C0318A12A1330AD008830AE00B920F7
:1004B000031033080318330FB70732080318320F3D
:1004C000B60731080318310FB50730080318300F8D
:1004D000B4073A08B300B201B101B0010310330808
:1004E0000318330FB70732080318320FB607310865
:1004F0000318310FB50730080318300FB40734085C
:10050000B0003508B1003608B2003708B300310832
:10051000013C031C9A2A031D972A3208863C031CBF
:100520009A2A031D972A33089F3C031C9A2A4621C6
:10053000851A532AB401B501B601B701BA01BB014E
:10054000532AB920D0080319AC2A0310B30DB20DF9
:10055000B10DB00DD00BA52A30083104320433049C
:100560000319C22BB01BCD2B300831043204031DFC
:10057000472B5D080739031DC12AC9303302031810
:10058000472BD708031DCA2A0130D700C330D80033
:100590005030D900B001B101B201B3015D08073993
:1005A000031DDB2A0030B4004C30B5004B30B600E0
:1005B0004030B700072BFF3E031DE72A0030B40090
:1005C0002D30B500C630B600C030B700072BFF3E57
:1005D000031DF32A0030B4001630B500E330B60036
:1005E0006030B700072BFF3E031DFF2A0030B40028
:1005F0000F30B5004230B6004030B700072B003056
:10060000B4000B30B5007130B600B030B700031045
:1006100037080318370FB30736080318360FB20729
:1006200035080318350FB10734080318340FB00725
:10063000D703031D072BB401B5015808B6005908AC
:10064000B700DA01DB01DC01832303143708031C44
:10065000370FB3023608031C360FB2023508031CED
:10066000350FB1023408031C340FB002031C3E2BBB
:10067000DC0A0319DB0A0319DA0A242BB0015A0831
:10068000B1005B08B2005C08B300DD17812B5D0888
:1006900007390319812BFF3E0319602BFF3E031915
:1006A0005C2BFF3E0319582B0E30D7001830632BFC
:1006B0001330D7001230632B1D30D7000C30632B62
:1006C0003B30D700063032020318812BB401B5014C
:1006D0003208B6003308B700031037080318370F85
:1006E000B30736080318360FB20735080318350F5D
:1006F000B10734080318340FB007D703031D6C2B60
:10070000DD174621F3294E082620AF0049304E0759
:100710008400000886002F088500CF0A4F1BCE0AF0
:100720004F134E08043C031CCE01640000345D08E6
:1007300007390319AC2B043C031CB72B1630682077
:1007400015306F202330762013307D201330842025
:100750005D0807397D2000340F30682016306F2087
:100760000E30762018307D201330842000340C3079
:10077000682017306F201930762021307D201A3004
:10078000842000341330682013306F20133076201B
:1007900013307D2000308420F3291330682013307B
:1007A0006F201330762013307D200E308420F32903
:0407B00000340034DD
:084000000100020003000400AE
:02400E00063F6B
:084200000000000000000000B6
:0842080000000600F10058005F
:1042100000003D0005001800000040000000000004
:1042200000004300A600D3000000A3004400E0000B
:0242400000007C
:00000001FF
