:020000040000FA
:10000000D4298207DD348434E934E534B4347534DA
:100010007D34C434FD34F534FC343D342934AD34FE
:10002000793478345D34BC3408340034FF34F83427
:1000300028342D34F4340D3439347534E93418341B
:10004000853439341934DC341D3421348207F734D3
:10005000FB34FE34FD34FF34820700349834963488
:10006000803400340F344234403400340134863458
:10007000A034003400342734103400340034033406
:10008000E834003400340034643400340034003484
:100090000A340034003400340134640083168100D3
:1000A00083120034640081018316273081006400CC
:1000B0002F30810083120034003086008B016400F1
:1000C000810183162B308100831263000000080039
:1000D000C9007F390120C91B0238C9000034CA0099
:1000E0007F390120CA1B0238CA000034CB007F3997
:1000F0000120CB1B0238CB000034CC007F3901201B
:10010000CC1B0238CC000034CD007F390120CD1B40
:100110000238CD0000340030C900CA00CB00CC004A
:10012000CD0000348B1383169B00831200088316C6
:100130009A001C158B1355309D00AA309D009C140D
:100140009C18A0281C1183120034AF008B13831657
:100150009B001C141A08831280002F080800A52099
:10016000013E840AA520013E840AA520013E840A9E
:10017000A528B001B101B201B301D801D901BA017A
:10018000BB01D7015D10AC018101000000004E08E9
:100190002620AF0049304E078400000886002F0853
:1001A0008500CF0A4F1BCE0A4F134E08043C031C98
:1001B000CE010108B3000130AC1F0301B31B0301E2
:1001C000B2070318B10AB11B2A2900000000AE08CB
:1001D0000319AD03AE0364000A30D60033082C06C1
:1001E0000319122901303302031DFE282E08B9001D
:1001F0002D08B8000730D600000012290430D600C0
:100200005908BB005808BA003808D8003908D90086
:1002100003142E08031C2E0FD9022D08031C2D0FCA
:10022000D802D70A5608FF3E031D13293308AC0035
:1002300000000000000000002D082E04031DC72848
:100240000108B3000130AC1F0301B31B0301B20767
:100250000318B10A00340008840AB0000008840AB8
:10026000B1000008840AB2000008840AB300A701A4
:1002700040308400640027082C20A800A70A270823
:100280002C20A900A70A27082C20AA00A70A2708C3
:100290002C20AB00A70A80012B08B3022A08031800
:1002A0005629B20203190310B2035729B2022908D2
:1002B00003185F29B10203190310B1036029B102C9
:1002C000280803186829B00203190310B00369292C
:1002D000B002031C6D29800A4C292B08B3072A0899
:1002E000031C7729B207B20A031903147829B2074D
:1002F0002908031C8029B107B10A031903148129B5
:10030000B1072808031C8929B007B00A0319031490
:100310008A29B007840A20302702031D3A29403079
:1003200084008008031DC529840A8008031DC5298F
:10033000840A8008031D9D29840A5D1CC22905309A
:100340004702031CB02946308400800A0A300002AC
:10035000031CB02980018403423004020318A5293C
:10036000433084004608C7004508C6004408C5005D
:100370004308C4004208C3004108C200DD18C62972
:10038000C517C6295118C417C629C1170008682007
:10039000840A00086F20840A00087620840A000876
:1003A0007D20840A0008842800308316850083128B
:1003B000850100308316860083128601CE01CF01AD
:1003C0001330C8001430682014306F2014307620A9
:1003D00014307D201430842027304D206130AD0052
:1003E000A830AE00B920D201D401553084002030AD
:1003F000A5208B205508DD00851A062AFF3A023910
:10040000DD00D50055308400203092208316003066
:10041000850000308600831264002030831681003E
:1004200083120630AD008230AE0025304D20B92059
:100430003030AD00D430AE00D10AD20A3208C03913
:10044000031D562AB21A522A321A4E2AB2194A2AC1
:100450003219472AB218472A3218472A3308363C3D
:10046000031C472A3308053C352A5220D20AD20AF7
:10047000D20AC330AD005030AE0000305A2A5220AC
:10048000D20A6130AD00A830AE0001305A2A5220A5
:1004900002305A2A20304D2003305A2A21304D2074
:1004A00004305A2A22304D2005305A2A23304D205C
:1004B00006305A2AD000B920D0080319662A031042
:1004C000B30DB20DB10DB00DD00B5F2A3008310461
:1004D000320433040319FE2AB01B092B30083104FF
:1004E0003204031DE82ADD18792A65303302031827
:1004F000E82AD708031D822A0130D700C330D8006C
:100500005030D90046305702031C922A571C8D2ABE
:10051000D7033A08D8003B08D9000310D70C0310C2
:10052000D80CD90CB001B101B201B301DD18A12A78
:100530000230B400FA30B500F030B6008030B700B9
:10054000A92A0130B400C930B500C330B6008030EC
:10055000B700031037080318370FB307360803181E
:10056000360FB20735080318350FB10734080318E2
:10057000340FB007D703031DA92AB401B5015808E9
:10058000B6005908B700DA01DB01DC01EA220314E6
:100590003708031C370FB3023608031C360FB202AC
:1005A0003508031C350FB1023408031C340FB002A8
:1005B000031CE02ADC0A0319DB0A0319DA0AC62A3B
:1005C000B0015A08B1005B08B2005C08B3005D14CA
:1005D0003721062A4E082620AF0049304E078400F6
:1005E000000886002F088500CF0A4F1BCE0A4F1344
:1005F0004E08043C031CCE01640000341330682014
:1006000013306F201330762013307D20003084208B
:10061000062A1330682013306F20133076201330F1
:080620007D200E308420062A23
:040628000034003466
:084000000100020003000400AE
:02400E00063F6B
:084200000000000000000000B6
:0842080000000600F10058005F
:1042100000003D0005001800000040000000000004
:1042200000004300A600D3000000A3004400E0000B
:0242400000007C
:00000001FF
